:1000000010C01FC01EC01DC01CC01BC01AC019C01C
:1000100018C017C016C015C014C013C012C011C03C
:1000200010C011241FBECFE5D1E0DEBFCDBF20E060
:10003000A0E6B0E001C01D92A236B207E1F702D0FF
:100040001DC0DECF80E886BD16BCD19AD29AD99861
:10005000DA9A2FEF80E792E0215080409040E1F75C
:1000600000C00000D99ADA982FEF80E792E0215083
:1000700080409040E1F700C00000E9CFF894FFCF46
:00000001FF
